{
  "contractName": "FactRecipient",
  "abi": [
    {
      "inputs": [
        {
          "internalType": "address",
          "name": "forwarder",
          "type": "address"
        }
      ],
      "stateMutability": "nonpayable",
      "type": "constructor"
    },
    {
      "anonymous": false,
      "inputs": [
        {
          "indexed": false,
          "internalType": "address",
          "name": "_user",
          "type": "address"
        }
      ],
      "name": "valueUpdated",
      "type": "event"
    },
    {
      "inputs": [
        {
          "internalType": "address",
          "name": "forwarder",
          "type": "address"
        }
      ],
      "name": "isTrustedForwarder",
      "outputs": [
        {
          "internalType": "bool",
          "name": "",
          "type": "bool"
        }
      ],
      "stateMutability": "view",
      "type": "function",
      "constant": true
    },
    {
      "inputs": [],
      "name": "myVar",
      "outputs": [
        {
          "internalType": "uint256",
          "name": "",
          "type": "uint256"
        }
      ],
      "stateMutability": "view",
      "type": "function",
      "constant": true
    },
    {
      "inputs": [],
      "name": "trustedForwarder",
      "outputs": [
        {
          "internalType": "address",
          "name": "",
          "type": "address"
        }
      ],
      "stateMutability": "view",
      "type": "function",
      "constant": true
    },
    {
      "inputs": [],
      "name": "user",
      "outputs": [
        {
          "internalType": "address",
          "name": "",
          "type": "address"
        }
      ],
      "stateMutability": "view",
      "type": "function",
      "constant": true
    },
    {
      "inputs": [],
      "name": "versionRecipient",
      "outputs": [
        {
          "internalType": "string",
          "name": "",
          "type": "string"
        }
      ],
      "stateMutability": "view",
      "type": "function",
      "constant": true
    },
    {
      "inputs": [
        {
          "internalType": "uint256",
          "name": "_myVar",
          "type": "uint256"
        }
      ],
      "name": "setter",
      "outputs": [],
      "stateMutability": "nonpayable",
      "type": "function"
    }
  ],
  "bytecode": "0x60806040526040518060400160405280600581526020017f322e322e300000000000000000000000000000000000000000000000000000008152506002908051906020019061004f929190610106565b506000600360006101000a81548173ffffffffffffffffffffffffffffffffffffffff021916908373ffffffffffffffffffffffffffffffffffffffff16021790555034801561009e57600080fd5b506040516108c13803806108c183398181016040528101906100c091906101be565b806000806101000a81548173ffffffffffffffffffffffffffffffffffffffff021916908373ffffffffffffffffffffffffffffffffffffffff1602179055505061029a565b8280546101129061021d565b90600052602060002090601f016020900481019282610134576000855561017b565b82601f1061014d57805160ff191683800117855561017b565b8280016001018555821561017b579182015b8281111561017a57825182559160200191906001019061015f565b5b509050610188919061018c565b5090565b5b808211156101a557600081600090555060010161018d565b5090565b6000815190506101b881610283565b92915050565b6000602082840312156101d4576101d361027e565b5b60006101e2848285016101a9565b91505092915050565b60006101f6826101fd565b9050919050565b600073ffffffffffffffffffffffffffffffffffffffff82169050919050565b6000600282049050600182168061023557607f821691505b602082108114156102495761024861024f565b5b50919050565b7f4e487b7100000000000000000000000000000000000000000000000000000000600052602260045260246000fd5b600080fd5b61028c816101eb565b811461029757600080fd5b50565b610618806102a96000396000f3fe608060405234801561001057600080fd5b50600436106100625760003560e01c8063486ff0cd146100675780634f8632ba14610085578063572b6c05146100a35780637da0a877146100d3578063c6b91540146100f1578063d423740b1461010f575b600080fd5b61006f61012b565b60405161007c9190610469565b60405180910390f35b61008d6101b9565b60405161009a9190610433565b60405180910390f35b6100bd60048036038101906100b89190610373565b6101df565b6040516100ca919061044e565b60405180910390f35b6100db610238565b6040516100e89190610433565b60405180910390f35b6100f961025c565b604051610106919061048b565b60405180910390f35b610129600480360381019061012491906103a0565b610262565b005b600280546101389061053d565b80601f01602080910402602001604051908101604052809291908181526020018280546101649061053d565b80156101b15780601f10610186576101008083540402835291602001916101b1565b820191906000526020600020905b81548152906001019060200180831161019457829003601f168201915b505050505081565b600360009054906101000a900473ffffffffffffffffffffffffffffffffffffffff1681565b60008060009054906101000a900473ffffffffffffffffffffffffffffffffffffffff1673ffffffffffffffffffffffffffffffffffffffff168273ffffffffffffffffffffffffffffffffffffffff16149050919050565b60008054906101000a900473ffffffffffffffffffffffffffffffffffffffff1681565b60015481565b8060018190555061027161030d565b600360006101000a81548173ffffffffffffffffffffffffffffffffffffffff021916908373ffffffffffffffffffffffffffffffffffffffff1602179055507fbf3ad13955f523fbf2ac7c474fdaf79dd29acba4e0a8750e090a79941ac64ad0600360009054906101000a900473ffffffffffffffffffffffffffffffffffffffff166040516103029190610433565b60405180910390a150565b600060146000369050101580156103295750610328336101df565b5b1561033d57601436033560601c9050610345565b339050610346565b5b90565b600081359050610358816105b4565b92915050565b60008135905061036d816105cb565b92915050565b6000602082840312156103895761038861059e565b5b600061039784828501610349565b91505092915050565b6000602082840312156103b6576103b561059e565b5b60006103c48482850161035e565b91505092915050565b6103d6816104c2565b82525050565b6103e5816104d4565b82525050565b60006103f6826104a6565b61040081856104b1565b935061041081856020860161050a565b610419816105a3565b840191505092915050565b61042d81610500565b82525050565b600060208201905061044860008301846103cd565b92915050565b600060208201905061046360008301846103dc565b92915050565b6000602082019050818103600083015261048381846103eb565b905092915050565b60006020820190506104a06000830184610424565b92915050565b600081519050919050565b600082825260208201905092915050565b60006104cd826104e0565b9050919050565b60008115159050919050565b600073ffffffffffffffffffffffffffffffffffffffff82169050919050565b6000819050919050565b60005b8381101561052857808201518184015260208101905061050d565b83811115610537576000848401525b50505050565b6000600282049050600182168061055557607f821691505b602082108114156105695761056861056f565b5b50919050565b7f4e487b7100000000000000000000000000000000000000000000000000000000600052602260045260246000fd5b600080fd5b6000601f19601f8301169050919050565b6105bd816104c2565b81146105c857600080fd5b50565b6105d481610500565b81146105df57600080fd5b5056fea26469706673582212204a90f793536dc2e080d21653a43b041222c33bec982774dc7c42817d723a837464736f6c63430008060033",
  "immutableReferences": {},
  "source": "/**\r\n * SPDX-License-Identifier:MIT\r\n */\r\npragma solidity ^0.8.6;\r\n\r\nimport \"@opengsn/contracts/src/BaseRelayRecipient.sol\";\r\n\r\ncontract FactRecipient is BaseRelayRecipient {\r\n    \r\n    uint public myVar;\r\n    string public override versionRecipient = \"2.2.0\";\r\n\r\n    address public user = address(0);\r\n     \r\n    event valueUpdated(address _user); \r\n    \r\n    constructor(address forwarder) {\r\n      trustedForwarder = forwarder;\r\n    }\r\n\r\n    function setter(uint _myVar) public {\r\n        myVar= _myVar;\r\n        user = _msgSender();\r\n        emit valueUpdated(user);\r\n    } \r\n\r\n}\r\n\r\n",
  "sourcePath": "D:\\TechiLab\\GSN\\GSNv2\\own\\contracts\\FactRecipient.sol",
  "compiler": {
    "name": "solc",
    "version": "0.8.6+commit.11564f7e.Emscripten.clang"
  },
  "schemaVersion": "3.4.3",
  "updatedAt": "2021-10-11T21:51:23.696Z",
  "networkType": "ethereum",
  "devdoc": {
    "kind": "dev",
    "methods": {},
    "version": 1
  },
  "userdoc": {
    "kind": "user",
    "methods": {
      "isTrustedForwarder(address)": {
        "notice": "return if the forwarder is trusted to forward relayed transactions to us. the forwarder is required to verify the sender's signature, and verify the call is not a replay."
      }
    },
    "version": 1
  }
}